S01200006C63642061746D3332382E73726563E0
S11300000C9434000C9451000C9451000C94510045
S11300100C9451000C9451000C9451000C94510018
S11300200C9451000C9451000C9451000C949401C4
S11300300C9451000C9451000C9478010C945100D0
S11300400C9451000C9451000C9451000C945100E8
S11300500C9451000C9451000C9451000C945100D8
S11300600C9451000C94510011241FBECFEFD8E022
S1130070DEBFCDBF15E0A0E0B1E0E6EAF4E002C0E7
S113008005900D92A03FB107D9F725E0A0EFB5E0A8
S113009001C01D92A23FB207E1F70E94D7010C9460
S11300A051020C940000299828E030E090E82C9844
S11300B0482F492311F02B9A01C02B982C9A96951E
S11300C021503109A1F7299A08952898289A2A9845
S11300D081E20E94530082EA0E94530084E00E945D
S11300E0530083E10E94530080E20E9453008CE09D
S11300F00E9453002A9A0895CF93C62F2A98877096
S113010080640E9453008C2F80680E9453002A9AB6
S1130110CF910895CF93DF9360E080E00E947C004C
S1130120D6E007C080E00E945300C150D9F7D150F7
S113013011F0C4E5F7CF60E080E00E947C00DF911D
S1130140CF9108950F931F93CF93DF9360E080E0E6
S11301500E947C00C9E2D1E001E213E089910E948F
S11301605300C017D107D1F7DF91CF911F910F91A1
S113017008950F931F93CF93DF9360E080E00E9474
S11301807C00C9EDD3E001ED15E089910E94530094
S1130190C017D107D1F7DF91CF911F910F91089527
S11301A0EF92FF920F931F93CF93DF934423E1F0D9
S11301B0162FC82FE22EF32ED42FD80F6C2F812F99
S11301C00E947C00002331F0F701808180950E9419
S11301D0530004C0F70180810E945300CF5FFFEFFA
S11301E0EF1AFF0ACD13EACFDF91CF911F910F9140
S11301F0FF90EF9008950F93CF930E948A00C1E07F
S113020033990DC0C23008F056C0CC0F2FEF83ECE9
S113021099E0215080409040E1F700C000003299FD
S11302200DC0C13009F44AC0C6952FEF83EC99E0A4
S1130230215080409040E1F700C00000319924C073
S1130240C23051F42FEF83EC99E02150804090406C
S1130250E1F700C0000035C000E020E933E049E4E4
S113026061E082E00E94D00021ED35E04EE162E0E1
S113027082E00E94D0002FEF80E792E0215080407E
S11302809040E1F700C00000CC2309F4B9CF0C2F53
S1130290017020E933E049E461E082E00E94D0008B
S11302A0C1FB002700F921ED35E04EE162E082E078
S11302B00E94D000A5CF329BB7CFC0CF319BCCCF0B
S11302C0E6CFCF910F91089592E094BD25E025BD2E
S11302D087BD90936E0008958DE08093810088E03F
S11302E0809389001092880082E080936F000895C3
S11302F01F920F920FB60F9211248F9380910001D9
S1130300882361F08091F105882321F0459A1092A9
S1130310F10504C0459881E08093F1058F910F9019
S11303200FBE0F901F9018951F920F920FB60F9249
S113033011242F933F934F935F936F937F938F93E6
S11303409F93AF93BF93EF93FF938091F00588320F
S113035020F48F5F8093F00502C01092F005E091C5
S1130360F005F0E0EF5FFE4F808186950E94640106
S1130370E091F005F0E0EF5FFE4F8081811103C052
S11303801092000103C081E080930001FF91EF917E
S1130390BF91AF919F918F917F916F915F914F9199
S11303A03F912F910F900FBE0F901F9018951AB880
S11303B08FE08BB99FE194B990E297B988B915B8E9
S11303C00E9465000E948A000E94A2007894809195
S11303D0010186950E9464010E946C0180E0C1E0E5
S11303E002C08C2FCD2FC817E9F00C2F017020E527
S11303F033E048E260E080E00E94D000C1FB0027C7
S113040000F921E233E04FE261E080E00E94D00095
S1130410C2FB002700F928E733E048E162E080E00E
S11304200E94D00033990EC0C43070F4DC2FDD0F6D
S11304302FEF83EC99E0215080409040E1F700C019
S1130440000003C0DC2F01C0DC2F32990CC0D13076
S113045029F1D6952FEF83EC99E02150804090400C
S1130460E1F700C00000319908C0D43031F00E9497
S1130470FB000E94A200C0E0D4E04999B2CF0E94E0
S1130480B9002FEF83E294EF215080409040E1F7D0
S113049000C000000E94A20080E0A4CF319BE7CFFF
S10904A0ECCFF894FFCF3D
S11304A6016B716B6B006B716B6B00716B5E5E6BDA
S11304B671717F7F007F8E7F7F007F8E7F7F007FBD
S11304C68E71716B6B8E8E7F7F00000000000000C2
S11304D60000000000000000000000000000000012
S11304E60000000000000000000000000000000002
S11304F600000000000000000000000000C0FC7EB8
S11305061C1000000070783E1C8C9EFA70000020BF
S1130516387E7CF0C00000000000000000000000EF
S113052600000000000000000000000000000000C1
S113053600000000000000000000000000000000B1
S113054600000000000000000000000080F8FCFF2E
S1130556FF8F030604000030E0E0E0FEFFFBF9E154
S1130566E020000000060203CFFFFEF0C08000007A
S11305760000000000000000000000000000000071
S11305860000000000000000000000000000000061
S11305960000000000000000000000000000081C2D
S11305A67FFFFFFFFFFF3F3C3C7CFE3F3F7FFFFF9B
S11305B6FFFFFFFF7F3F3F7C7C3C3C3FFFFFFFFF8D
S11305C6FF7F1C080000000000000000000000007F
S11305D60000000000000000000000000000000011
S11305E60000000000000000000000000000000001
S11305F60000000000071F3F3FF8C0C0E0000000F5
S1130606000020F90F0F01000000000000E0C0C048
S1130616F83F1F0701000000000000000000808072
S113062680808000000000000000000000808080C0
S113063680808080000000000000000000000000B0
S113064600000000000000000000000000010F3F51
S11306561F0000000000207DC7C0E0F03C00000041
S1130666003F0F070000000000000000000000002B
S1130676000000003F00001E2A2A2E00242A2A1207
S11306860040465860584640000000002E2A3A00B2
S11306963E0836200026281E003E0A3600223E2248
S11306A6003E0408043E00000000000000010100B2
S11306B60000000000000000000000000000000030
S11306C600FE0202FE00FC24180078847800C07044
S11306D64C70C00078847800F00CF00000DC20FC3C
S11306E620DC00FC4020FC000404FC0400FCA040C8
S11306F6FE10FE0078847800FCA45800F04CF0004C
S1130706B844FC000000FC4020FC00FC040400FC8F
S1130716241800F04CF00000FE926C00FCA0C0000F
S1130726FC00CC30CC0078847800804078447C800F
S1130736007F017F007E0A0E003C423C0040203CC4
S1130746223C40003C423C00403C027E00462810CD
S11307567E102846007E20107E00027E02007E5017
S1130766200000004628107E102846007E20107EB9
S113077600027E02007E50200000000000E03018D7
S113078618383878303020301010082808084444C7
S1130796240404040808489824243A0E478309517B
S11307A6A31C78C0000000007E0A04702870003084
S11307B648F84830000878080070287000700878F7
S11307C6007820107800502878000000000000000F
S11307D6001FA0562888880E0101C0F00E01008073
S11307E6308E00000000000000000081404000013F
S11307F61EE001060900803FC080000000000000E2
S1130806000000003C113C003814380000000000D1
S113081600000000000000000000000000000000CE
S11308260000C038040300E01C9F9F807818080766
S1130836182086F9000B18184080FE1880E05887A7
S1130846C7C7E0981E0160000000E01F000707FC10
S1130856003E0408043E003C10083C003C103C00EA
S11308663C10083C003C0810083C00381438003C96
S1130876902C000000FF000000000000013FF00083
S113088602021F1F1F1F0F01070040400000010343
S11308960000030F0F0F4F2F372CF018840D0300A1
S11308A60000000F7080000000000000000000003F
S11308B6000000000000000000000000000000002E
S11308C6000000B742B7000000F31C20C00CF8205B
S11308D6C0000F7CC0800000000000000030F8F863
S11308E638383838300000000000C02010E8000313
S11308F600C00020D00F0F00000FF0000000000021
S113090600000000000000000000000000000000DD
S113091600000000000000000000000000E13EE0CE
S113092681093649800808194043FEFCF870E060E6
S113093660404040818181808040C0605050FE1EEE
S1130946D12680700F080601008080F8FFFEF89813
S113095660800000000000000000000000000000AD
S1130966000000000000000000000000000000007D
S11309760017140F001F0204021F001F1511001F89
S11309860507001F151100011F01001F141C00009C
S9030000FC
