:100000000C9434000C9451000C9451000C94510049
:100010000C9451000C9451000C9451000C9451001C
:100020000C9451000C9451000C9451000C9451000C
:100030000C9451000C9451000C943D010C9451000F
:100040000C9451000C9451000C9499010C945100A3
:100050000C9451000C9451000C9451000C945100DC
:100060000C9451000C94510011241FBECFEFD8E026
:10007000DEBFCDBF11E0A0E0B1E0E6E2F4E002C0F7
:1000800005900D92A033B107D9F721E0A0E3B1E0CC
:1000900001C01D92A634B207E1F70E94BB010C9487
:1000A00011020C94000088E08093C400E1ECF0E0C1
:1000B000808188698083E0ECF0E0808182608083C9
:1000C000E2ECF0E08081866080830895E0ECF0E06F
:1000D000908195FFFDCF8093C60008950F931F93E5
:1000E000CF93FC018081882359F08F01C0E00E94EA
:1000F0006600CF5FF801EC0FF11D80818111F7CF11
:10010000CF911F910F910895CF92DF92EF92FF92BE
:100110000F931F93CF93DF936B017C01992324F4FA
:100120008DE20E9466000CC0672B682B692B41F49E
:1001300080E30E946600C1E0D0E0E0E0F0E02BC088
:10014000C601992324F4882799278C199D09E82F43
:10015000F92FEA30F105D0F19F01C1E0D0E0ADEC1C
:10016000BCEC0E9402029C01369527953695279596
:1001700036952795CE01880F991FCC0FDD1FCC0F28
:10018000DD1FCC0FDD1FC80FD91F2A30310538F70E
:100190001C161D06ECF461E070E011E0CE010E9437
:1001A000EE01CF010E94DA01F82E092F862F0E945E
:1001B0006600EF2DF02F110F812F880F880F180F79
:1001C000612F70E0C617D7074CF702C00E94660087
:1001D000DF91CF911F910F91FF90EF90DF90CF9023
:1001E000089584EA8093BC00ECEBF0E080818823E2
:1001F000ECF708958093BB0084E88093BC00ECEB9F
:10020000F0E080818823ECF708950E94F10080EDF2
:100210000E94FA008BE60E94FA0080E00E94FA0039
:1002200084E98093BC00089581E080933201EAE77D
:10023000F0E0808187688083ECE7F0E08081806C6B
:1002400080838081807F8083EAE7F0E0808186FD83
:10025000FDCF0895EAE7F0E08081806480838081AB
:1002600086FDFDCF80917800909179000895EEE6AB
:10027000F0E080818D7F808308951F920F920FB6EA
:100280000F9211242F933F934F935F936F937F931C
:100290008F939F93AF93BF93EF93FF930E942A0195
:1002A0000E946600809130019091310101969093F7
:1002B0003101809330019170892BC9F480E091E085
:1002C0000E946E006091300170913101772314F427
:1002D00061507E4F672F770F770B6595072E000CC7
:1002E000880B990B0E9484008AE00E94660020918E
:1002F000330180E090E0922F990F209130013091EE
:1003000031012817390724F00E9437010E94140197
:10031000FF91EF91BF91AF919F918F917F916F91DD
:100320005F914F913F912F910F900FBE0F901F90B3
:1003300018951F920F920FB60F9211242F938F933F
:100340009F93EF93FF939091C60080913501E82F22
:10035000F0E0EA5CFE4F2081920F90838F5F8093E4
:100360003501FF91EF919F918F912F910F900FBECB
:100370000F901F9018950E9414010E94530080E274
:100380008093B8000E94050189E091E00E946E0010
:100390007894809132018823F1F38FE191E00E94FB
:1003A0006E000E942A01BC01990F880B990B0E94D4
:1003B0008400EFCFAA1BBB1B51E107C0AA1FBB1FC4
:1003C000A617B70710F0A61BB70B881F991F5A95E1
:1003D000A9F780959095BC01CD01089597FB072E54
:1003E00016F4009407D077FD09D00E94DA0107FCCB
:1003F00005D03EF4909581959F4F08957095619535
:100400007F4F0895A29FB001B39FC001A39F700DBD
:10041000811D1124911DB29F700D811D1124911D0C
:060420000895F894FFCFDF
:100426000A53616D706C65200048454C4C4F204660
:10043600524F4D2041544D4547413332380A000A48
:1004460050484F544F52455A4953544F523A000060
:00000001FF
