S00C00007A6F6E642E737265635D
S11300000C9434000C9451000C9451000C94510045
S11300100C9451000C9451000C9451000C94510018
S11300200C9451000C9451000C9451000C94510008
S11300300C9451000C9451000C947A010C945100CE
S11300400C9451000C9451000C94D6010C94510062
S11300500C9451000C9451000C9451000C945100D8
S11300600C9451000C94510011241FBECFEFD8E022
S1130070DEBFCDBF11E0A0E0B1E0E4EBF4E002C0EC
S113008005900D92A033B107D9F721E0A0E3B1E0C8
S113009001C01D92A634B207E1F70E94F8010C9446
S11300A058020C94000088E08093C400E1ECF0E076
S11300B0808188698083E0ECF0E0808182608083C5
S11300C0E2ECF0E08081866080830895E0ECF0E06B
S11300D0908195FFFDCF8093C60008950F931F93E1
S11300E0CF93FC018081882359F08F01C0E00E94E6
S11300F06600CF5FF801EC0FF11D80818111F7CF0D
S1130100CF911F910F9108954F925F926F927F92BA
S11301108F929F92AF92BF92CF92DF92EF92FF9213
S11301200F931F93CF93DF936B017C01992324F4E6
S11301308DE20E9466000FC0672B682B692B59F46F
S113014080E30E946600812C912C54018394C12C7D
S1130150D12C76013FC0D701C601FF203CF488278B
S11301609927DC018C199D09AE09BF096C017D0139
S11301708A309105A105B1050CF45DC09C01AD0167
S1130180C1E0D0E00F2EFAE04F2E512C612C712CDF
S1130190F02DCA01B901A30192010E941702CE01F8
S11301A0880F991F4E01880C991C880C991C880C87
S11301B0991CEC01C80DD91D2A30310541055105A2
S11301C044F74E01DD0FAA08BB08181419041A04D9
S11301D01B049CF5412C512C32014394C501B401FC
S11301E0A30192010E941702C701B6010E941702DF
S11301F0062F172FD82FC92F822F0E946600C02EDA
S1130200D12EED2EFC2E440C551C661C771CD301FC
S1130210C201880F991FAA1FBB1F880F991FAA1F0D
S1130220BB1F480E591E6A1E7B1E84149504A60427
S1130230B704A4F602C00E946600DF91CF911F911B
S11302400F91FF90EF90DF90CF90BF90AF909F9071
S11302508F907F906F905F904F90089584EA809381
S1130260BC00ECEBF0E080818823ECF708958093E8
S1130270BB0084E88093BC00ECEBF0E08081882331
S1130280ECF708950E942E0180ED0E9437018BE661
S11302900E94370180E00E94370184E98093BC000A
S11302A0089581E080933201EAE7F0E08081876875
S11302B08083ECE7F0E08081806C80838081807FA4
S11302C08083EAE7F0E0808186FDFDCF0895EAE7C8
S11302D0F0E0808180648083808186FDFDCF809101
S11302E07800909179000895EEE6F0E080818D7FAA
S11302F0808308951F920F920FB60F9211242F93AB
S11303003F934F935F936F937F938F939F93AF9399
S1130310BF93EF93FF930E9467010E946600809150
S11303203001909131010196909331018093300115
S11303309170892BC9F480E091E00E946E00609175
S1130340300170913101772314F461507E4F672F8F
S1130350770F770B6595072E000C880B990B0E947D
S113036084008AE00E9466002091330180E090E0DE
S1130370922F990F209130013091310128173907BC
S113038024F00E9474010E945101FF91EF91BF91EA
S1130390AF919F918F917F916F915F914F913F9119
S11303A02F910F900FBE0F901F9018951F920F92D0
S11303B00FB60F9211242F938F939F93EF93FF9374
S11303C09091C60080913501E82FF0E0EA5CFE4F81
S11303D02081920F90838F5F80933501FF91EF917D
S11303E09F918F912F910F900FBE0F901F90189592
S11303F00E9451010E94530080E28093B8000E9441
S1130400420189E091E00E946E007894809132016B
S11304108823F1F38FE191E00E946E000E9467014E
S1130420BC01990F880B990B0E948400EFCF052E15
S113043097FB1EF400940E942E0257FD07D00E94E1
S1130440360207FC03D04EF40C942E0250954095CE
S1130450309521953F4F4F4F5F4F0895909580956C
S1130460709561957F4F8F4F9F4F0895A1E21A2E8B
S1130470AA1BBB1BFD010DC0AA1FBB1FEE1FFF1F44
S1130480A217B307E407F50720F0A21BB30BE40B94
S1130490F50B661F771F881F991F1A9469F76095DB
S11304A07095809590959B01AC01BD01CF01089595
S10704B0F894FFCFEA
S11304B40A53616D706C65200048454C4C4F2046CE
S11304C4524F4D2041544D4547413332380A000AB6
S11304D450484F544F52455A4953544F523A0000CE
S9030000FC
