:100000000C9434000C9451000C9451000C94510049
:100010000C9451000C9451000C9451000C9451001C
:100020000C9451000C9451000C9451000C9451000C
:100030000C9451000C9451000C94FB010C94510051
:100040000C9451000C9451000C9457020C945100E4
:100050000C9451000C9451000C9451000C945100DC
:100060000C9451000C94510011241FBECFEFD8E026
:10007000DEBFCDBF11E0A0E0B1E0E4ECF8E002C0EB
:1000800005900D92AC34B107D9F721E0ACE4B1E0B2
:1000900001C01D92A236B207E1F70E9479020C94CA
:1000A00060040C94000088E08093C400E1ECF0E070
:1000B000808188698083E0ECF0E0808182608083C9
:1000C000E2ECF0E08081866080830895E0ECF0E06F
:1000D000908195FFFDCF8093C60008950F931F93E5
:1000E000CF93FC018081882359F08F01C0E00E94EA
:1000F0006600CF5FF801EC0FF11D80818111F7CF11
:10010000CF911F910F9108954F925F926F927F92BE
:100110008F929F92AF92BF92CF92DF92EF92FF9217
:100120000F931F93CF93DF936B017C01992324F4EA
:100130008DE20E9466000FC0672B682B692B59F473
:1001400080E30E946600812C912C54018394C12C81
:10015000D12C76013FC0D701C601FF203CF488278F
:100160009927DC018C199D09AE09BF096C017D013D
:100170008A309105A105B1050CF45EC09C01AD016A
:10018000C1E0D0E00F2EFAE04F2E512C612C712CE3
:10019000F02DCA01B901A30192010E940B04CE0106
:1001A000880F991F4E01880C991C880C991C880C8B
:1001B000991CEC01C80DD91D2A30310541055105A6
:1001C00044F74E01DD0FAA08BB08181419041A04DD
:1001D0001B04ACF5412C512C32014394C501B401F0
:1001E000A30192010E940B04C701B6010E940B04F7
:1001F000062F172FD82FC92F80E3820F0E94660089
:10020000C02ED12EED2EFC2E440C551C661C771CE6
:10021000D301C201880F991FAA1FBB1F880F991F06
:10022000AA1FBB1F480E591E6A1E7B1E841495040C
:10023000A604B7049CF603C0805D0E946600DF91AF
:10024000CF911F910F91FF90EF90DF90CF90BF90D3
:10025000AF909F908F907F906F905F904F90089598
:1002600084EA8093BC00ECEBF0E080818823ECF71B
:1002700008958093BB0084E88093BC00ECEBF0E031
:1002800080818823ECF7089584EC8093BC00ECEB2C
:10029000F0E080818823ECF78091BB00089584E82A
:1002A0008093BC00ECEBF0E080818823ECF7809138
:1002B000BB0008950E94300180ED0E9439018BE659
:1002C0000E94390180E00E94390184E98093BC00DA
:1002D00008950E94300180ED0E94390185E70E9457
:1002E00039010E94300181ED0E9439010E944F01C5
:1002F00094E99093BC0091E0883609F090E0892F52
:100300000895CF930E94300180ED0E94390181E46D
:100310000E9439010E94300181ED0E9439010E9442
:100320004401C82F0E944F0194E99093BC002C2FE8
:1003300030E0322F2227A901482BCA0164E571E081
:100340000E94F703072E000C880B990B0E946B0389
:1003500028EB3EE142E152E40E94C7020E943303CF
:10036000CB01CF910895CF930E94300180ED0E9480
:1003700039018DE30E9439010E94300181ED0E9414
:1003800039010E944401C82F0E944F0194E99093C3
:10039000BC002C2F30E0322F2227A901482BCA01A4
:1003A000CF91089581E080934E01EAE7F0E08081EB
:1003B00087688083ECE7F0E08081806C80838081B7
:1003C000807F8083EAE7F0E0808186FDFDCF08959D
:1003D000EAE7F0E0808180648083808186FDFDCF44
:1003E00080917800909179000895EEE6F0E08081A8
:1003F0008D7F808308951F920F920FB60F92112464
:100400002F933F934F935F936F937F938F939F931C
:10041000AF93BF93EF93FF930E94E8010E946600A1
:1004200080914C0190914D01019690934D018093E4
:100430004C019170892BC9F480E091E00E946E001C
:1004400060914C0170914D01772314F461507E4FFF
:10045000672F770F770B6595072E000C880B990B8C
:100460000E9484008AE00E94660020914F0180E093
:1004700090E0922F990F20914C0130914D01281757
:10048000390724F00E94F5010E94D201FF91EF91FB
:10049000BF91AF919F918F917F916F915F914F919C
:1004A0003F912F910F900FBE0F901F9018951F92A4
:1004B0000F920FB60F9211242F938F939F93EF9368
:1004C000FF939091C60080915101E82FF0E0EE5A21
:1004D000FE4F2081920F90838F5F80935101FF9197
:1004E000EF919F918F912F910F900FBE0F901F90C2
:1004F00018950E94D2010E94530080E28093B800B8
:100500000E945A0189E091E00E946E000E946901F8
:10051000882329F08FE191E00E946E0004C087E2F9
:1005200091E00E946E00789480914E01882361F0E2
:1005300082E391E00E946E000E94E801BC01990FE5
:10054000880B990B0E94840082E491E00E946E0067
:100550000E948101BC01990F880B990B0E948400B5
:1005600086E491E00E946E000E94B301BC01990FE5
:10057000880B990B0E9484002FEF89E698E12150A7
:1005800080409040E1F700C00000CECF5058BB271C
:10059000AA270E94DE020C94BD030E94AF0338F02C
:1005A0000E94B60320F039F49F3F19F426F40C940E
:1005B000AC030EF4E095E7FB0C94A603E92F0E9430
:1005C000CE0358F3BA17620773078407950720F024
:1005D00079F4A6F50C94F0030EF4E0950B2EBA2FE7
:1005E000A02D0B01B90190010C01CA01A001112439
:1005F000FF27591B99F0593F50F4503E68F11A16E5
:10060000F040A22F232F342F4427585FF3CF469575
:1006100037952795A795F0405395C9F77EF41F1697
:10062000BA0B620B730B840BBAF09150A1F0FF0F61
:10063000BB1F661F771F881FC2F70EC0BA0F621F4D
:10064000731F841F48F4879577956795B795F7953D
:100650009E3F08F0B0CF9395880F08F09927EE0FD2
:100660009795879508950E943A036894B1110C9468
:10067000F10308950E94D60388F09F5798F0B92F90
:100680009927B751B0F0E1F0660F771F881F991FC7
:100690001AF0BA95C9F714C0B13091F00E94F00376
:1006A000B1E008950C94F003672F782F8827B85F86
:1006B00039F0B93FCCF3869577956795B395D9F71F
:1006C0003EF490958095709561957F4F8F4F9F4F29
:1006D0000895E89409C097FB3EF490958095709535
:1006E00061957F4F8F4F9F4F9923A9F0F92F96E97E
:1006F000BB279395F695879577956795B795F111F3
:10070000F8CFFAF4BB0F11F460FF1BC06F5F7F4F8F
:100710008F4F9F4F16C0882311F096E911C07723A1
:1007200021F09EE8872F762F05C0662371F096E8AA
:10073000862F70E060E02AF09A95660F771F881F79
:10074000DAF7880F9695879597F9089597F99F6737
:1007500080E870E060E008959FEF80EC0895002449
:100760000A941616170618060906089500240A9416
:1007700012161306140605060895092E0394000C9C
:1007800011F4882352F0BB0F40F4BF2B11F460FF2B
:1007900004C06F5F7F4F8F4F9F4F089557FD905854
:1007A000440F551F59F05F3F71F04795880F97FB35
:1007B000991F61F09F3F79F08795089512161306EF
:1007C0001406551FF2CF4695F1DF08C0161617061E
:1007D0001806991FF1CF8695710561050894089553
:1007E000E894BB2766277727CB0197F9089597FBF5
:1007F000072E16F4009407D077FD09D00E942A0432
:1008000007FC05D03EF4909581959F4F0895709513
:1008100061957F4F0895052E97FB1EF400940E946A
:10082000220457FD07D00E943E0407FC03D04EF47B
:100830000C94220450954095309521953F4F4F4F91
:100840005F4F089590958095709561957F4F8F4F7C
:100850009F4F0895AA1BBB1B51E107C0AA1FBB1FD6
:10086000A617B70710F0A61BB70B881F991F5A953C
:10087000A9F780959095BC01CD010895A1E21A2EAB
:10088000AA1BBB1BFD010DC0AA1FBB1FEE1FFF1F34
:10089000A217B307E407F50720F0A21BB30BE40B84
:1008A000F50B661F771F881F991F1A9469F76095CB
:1008B0007095809590959B01AC01BD01CF01089585
:0408C000F894FFCFDA
:1008C4000A53616D706C65200048454C4C4F2046BE
:1008D400524F4D2041544D4547413332380A004D63
:1008E4005055204F4B0A004552524F52204D5055FF
:1008F40021000A50484F544F52455A4953544F52BD
:0C0904003A000A543D000A20793D000032
:00000001FF
