:100000000C9475000C9492000C9492000C94920045
:100010000C9492000C9492000C9492000C94920018
:100020000C9492000C9492000C9492000C94920008
:100030000C9492000C9492000C9490010C949200F9
:100040000C9492000C9492000C94EC010C9492008D
:100050000C9492000C9492000C9492000C949200D8
:100060000C9492000C94920007634236B79BD8A779
:100070001A39685618AEBAAB558C1D3CB7CC5763CD
:10008000BD6DEDFD753EF6177231BF000000803F7B
:1000900008000000BE922449123EABAAAA2ABECD97
:1000A000CCCC4C3E00000080BEABAAAAAA3E000009
:1000B0000000BF000000803F000000000008417801
:1000C000D3BB4387D1133D190E3CC3BD4282AD2B38
:1000D0003E68EC8276BED98FE1A93E4C80EFFFBE30
:1000E00001C4FF7F3F000000000011241FBECFEFBE
:1000F000D8E0DEBFCDBF11E0A0E0B1E0E8E2FCE077
:1001000002C005900D92A033B107D9F721E0A0E31A
:10011000B1E001C01D92A634B207E1F70E940E02C1
:100120000C9412060C94000088E08093C400E1EC6B
:10013000F0E0808188698083E0ECF0E0808182607B
:100140008083E2ECF0E08081866080830895E0ECBB
:10015000F0E0908195FFFDCF8093C60008950F9346
:100160001F93CF93FC018081882359F08F01C0E059
:100170000E94A700CF5FF801EC0FF11D8081811173
:10018000F7CFCF911F910F9108954F925F926F9289
:100190007F928F929F92AF92BF92EF92FF920F93B6
:1001A0001F93CF93DF934B015C01992324F48DE2DD
:1001B0000E94A70008C0672B682B692B21F480E3FD
:1001C0000E94A70052C09401992024F422273327CB
:1001D00028193909E901209709F447C000E0ADEC7E
:1001E000BCEC0E94E1059C01369527953695279534
:1001F000369527950F5F2115310589F70023A9F161
:1002000011E0E02EF12CB701611B7109072E000CE3
:10021000880B990B0E9444039B01AC0160E070E0E5
:1002200080E291E40E94D0032B013C014E01A12CFD
:10023000B12CC501B4010E944203A30192010E94A6
:100240009A020E94130380E3860F0E94A700C30155
:10025000B2010E940C039B01AC01C501B4010E94D4
:10026000C205EB011F5F011770F6DF91CF911F915F
:100270000F91FF90EF90BF90AF909F908F907F90E5
:100280006F905F904F90089584EA8093BC00ECEBF0
:10029000F0E080818823ECF708958093BB0084E828
:1002A0008093BC00ECEBF0E080818823ECF70895AC
:1002B0000E94440180ED0E944D018BE60E944D0199
:1002C00080E00E944D0184E98093BC00089581E0A4
:1002D00080933201EAE7F0E0808187688083ECE771
:1002E000F0E08081806C80838081807F8083EAE77A
:1002F000F0E0808186FDFDCF0895EAE7F0E080819F
:1003000080648083808186FDFDCF8091780090910C
:1003100079000895EEE6F0E080818D7F8083089576
:100320001F920F920FB60F9211242F933F934F936A
:100330005F936F937F938F939F93AF93BF93EF934D
:10034000FF930E947D010E94A7008091300190914F
:100350003101019690933101809330019170892B86
:10036000C9F480E091E00E94AF006091300170918B
:100370003101772314F461507E4F672F770F770B8D
:100380006595072E000C880B990B0E94C5008AE02A
:100390000E94A7002091330180E090E0922F990FF6
:1003A00020913001309131012817390724F00E9443
:1003B0008A010E946701FF91EF91BF91AF919F91D8
:1003C0008F917F916F915F914F913F912F910F90FE
:1003D0000FBE0F901F9018951F920F920FB60F929D
:1003E00011242F938F939F93EF93FF939091C600C7
:1003F00080913501E82FF0E0EA5CFE4F2081920FFA
:1004000090838F5F80933501FF91EF919F918F9142
:100410002F910F900FBE0F901F9018950E946701AB
:100420000E94940080E28093B8000E94580189E005
:1004300091E00E94AF007894809132018823F1F31B
:100440008FE191E00E94AF000E947D01BC01990FF5
:10045000880B990B0E94C500EFCF5058BB27AA27E5
:100460000E9445020C9496030E94880338F00E9473
:100470008F0320F039F49F3F19F426F40C94850380
:100480000EF4E095E7FB0C947F03E92F0E94A7038D
:1004900058F3BA17620773078407950720F079F4B9
:1004A000A6F50C94C9030EF4E0950B2EBA2FA02DDF
:1004B0000B01B90190010C01CA01A0011124FF2711
:1004C000591B99F0593F50F4503E68F11A16F0400C
:1004D000A22F232F342F4427585FF3CF469537950B
:1004E0002795A795F0405395C9F77EF41F16BA0BD0
:1004F000620B730B840BBAF09150A1F0FF0FBB1F7E
:10050000661F771F881FC2F70EC0BA0F621F731FC6
:10051000841F48F4879577956795B795F7959E3F23
:1005200008F0B0CF9395880F08F09927EE0F9795B4
:10053000879508950E94AE020C9496030E948F0343
:1005400058F00E94880340F029F45F3F29F00C9492
:100550007F0351110C94CA030C9485030E94A703D6
:1005600068F39923B1F3552391F3951B550BBB27E2
:10057000AA2762177307840738F09F5F5F4F220F27
:10058000331F441FAA1FA9F335D00E2E3AF0E0E81E
:1005900032D091505040E695001CCAF72BD0FE2F68
:1005A00029D0660F771F881FBB1F261737074807FC
:1005B000AB07B0E809F0BB0B802DBF01FF279358B4
:1005C0005F4F3AF09E3F510578F00C947F030C94F6
:1005D000CA035F3FE4F3983ED4F386957795679519
:1005E000B795F7959F5FC9F7880F911D96958795E9
:1005F00097F90895E1E0660F771F881FBB1F621708
:1006000073078407BA0720F0621B730B840BBA0BC5
:10061000EE1F88F7E09508950E9413036894B111C6
:100620000C94CA0308950E94AF0388F09F5798F076
:10063000B92F9927B751B0F0E1F0660F771F881FE7
:10064000991F1AF0BA95C9F714C0B13091F00E9401
:10065000C903B1E008950C94C903672F782F882748
:10066000B85F39F0B93FCCF3869577956795B39528
:10067000D9F73EF490958095709561957F4F8F4F97
:100680009F4F0895E89409C097FB3EF4909580959C
:10069000709561957F4F8F4F9F4F9923A9F0F92F48
:1006A00096E9BB279395F695879577956795B795C6
:1006B000F111F8CFFAF4BB0F11F460FF1BC06F5FAC
:1006C0007F4F8F4F9F4F16C0882311F096E911C0BE
:1006D000772321F09EE8872F762F05C0662371F0DF
:1006E00096E8862F70E060E02AF09A95660F771FF3
:1006F000881FDAF7880F9695879597F9089597F9E7
:100700009F6780E870E060E008959FEF80EC0895B7
:1007100000240A94161617061806090608950024E0
:100720000A9412161306140605060895092E03945A
:10073000000C11F4882352F0BB0F40F4BF2B11F4CE
:1007400060FF04C06F5F7F4F8F4F9F4F089557FD2D
:100750009058440F551F59F05F3F71F04795880F2F
:1007600097FB991F61F09F3F79F0879508951216C6
:1007700013061406551FF2CF4695F1DF08C0161672
:1007800017061806991FF1CF869571056105089423
:100790000895E894BB2766277727CB0197F908953A
:1007A000FA01EE0FFF1F309621053105A1F1611509
:1007B000710561F48038BFE39B0749F16894903874
:1007C000810561F08038BFEF9B0741F099234AF51E
:1007D000FF3FE1053105210519F1E8940894E795FB
:1007E000D901AA2329F4AB2FBE2FF85FD0F310C094
:1007F000FF5F70F4A695E0F7F73950F019F0FF3A73
:1008000038F49F779F930DD00F9007FC9058089570
:1008100046F00C94850360E070E080E89FE3089563
:100820004FE79F775F934F933F932F930E94CB04A3
:100830002F913F914F915F910E9447050C9428049E
:1008400029F416F00C947F030C94C9030C948503CF
:100850000E94AF03A8F39638A0F707F80F92E89428
:100860002BE33AEA48EB5FE70E945D050F920F9297
:100870000F924DB75EB70F920E941305E8E6F0E0C5
:100880000E945A044F915F91EF91FF91E595EE1F01
:10089000FF1F49F0FE57E0684427EE0F441FFA950A
:1008A000E1F74195550B0E948D040F9007FE0C94C3
:1008B00081040895DF93CF931F930F93FF92EF92DC
:1008C000DF927B018C01689406C0DA2EEF010E9452
:1008D0005A05FE01E894A5912591359145915591D0
:1008E000A6F3EF010E944502FE019701A801DA94E8
:1008F00069F7DF90EF90FF900F911F91CF91DF91FB
:1009000008959B01AC0160E070E080E89FE30C94E7
:100910009A020C947F030C94B4050E94AF03D8F3A1
:100920009923C9F3940F511DA3F39150504094F0B3
:1009300059F0882332F0660F771F881F915050407E
:10094000C1F79E3F51052CF7880F911D969587950D
:1009500097F908955F3FACF0983E9CF0BB278695D1
:1009600077956795B79508F4B1609395C1F7BB0F7C
:1009700058F711F460FFE8CF6F5F7F4F8F4F9F4FA5
:10098000E3CF0C94CA0316F00C94B4050C948503C1
:1009900068940C947F030E94AF03A8F39923C1F3DA
:1009A000AEF3DF93CF931F930F93FF92C92FDD27F1
:1009B00088232AF02197660F771F881FDAF720E037
:1009C00030E040E85FEB9FE3883920F0803E38F06C
:1009D00021968F770E942E02E0E9F0E004C00E9489
:1009E0002E02EDEBF0E00E945A048B01BE01EC01F7
:1009F000FB2E6F5771097595771F880B990B0E9415
:100A0000440328E132E741E35FE30E945A05AF2D3A
:100A10009801AE01FF900F911F91CF91DF910E943D
:100A200045020C949603FA01DC01AA0FBB1F9B013F
:100A3000AC01BF5728F4222733274427507820C021
:100A4000B75190F4AB2F0024469537952795011C9C
:100A5000A395D2F3002071F0220F331F441FB395EA
:100A6000DAF30ED00C942D0261307105A0E88A07EC
:100A7000B94630F49B01AC01662777278827907828
:100A8000309621F0208331834283538308950E945E
:100A90005A050C9496030E94880338F00E948F0335
:100AA00020F0952311F00C947F030C9485031124FE
:100AB0000C94CA030E94A70370F3959FC1F3950F8E
:100AC00050E0551F629FF001729FBB27F00DB11DD2
:100AD000639FAA27F00DB11DAA1F649F6627B00D62
:100AE000A11D661F829F2227B00DA11D621F739F4B
:100AF000B00DA11D621F839FA00D611D221F749F59
:100B00003327A00D611D231F849F600D211D822F9F
:100B1000762F6A2F11249F5750409AF0F1F08823C6
:100B20004AF0EE0FFF1FBB1F661F771F881F9150F3
:100B30005040A9F79E3F510580F00C947F030C9420
:100B4000CA035F3FE4F3983ED4F3869577956795A3
:100B5000B795F795E7959F5FC1F7FE2B880F911D1D
:100B60009695879597F908959F3F31F0915020F41D
:100B7000879577956795B795880F911D9695879579
:100B800097F90895052E97FB1EF400940E94D9054D
:100B900057FD07D00E94F00507FC03D04EF40C94DB
:100BA000D90550954095309521953F4F4F4F5F4F58
:100BB000089590958095709561957F4F8F4F9F4FC9
:100BC0000895A29FB001B39FC001A39F700D811D26
:100BD0001124911DB29F700D811D1124911D089546
:100BE000A1E21A2EAA1BBB1BFD010DC0AA1FBB1F31
:100BF000EE1FFF1FA217B307E407F50720F0A21BA3
:100C0000B30BE40BF50B661F771F881F991F1A940F
:100C100069F760957095809590959B01AC01BD0139
:080C2000CF010895F894FFCF05
:100C28000A53616D706C65200048454C4C4F204656
:100C3800524F4D2041544D4547413332380A000A3E
:100C480050484F544F52455A4953544F523A000056
:00000001FF
